{
  "contractName": "SimpleStorage",
  "abi": [
    {
      "inputs": [],
      "name": "num",
      "outputs": [
        {
          "internalType": "uint256",
          "name": "",
          "type": "uint256"
        }
      ],
      "stateMutability": "view",
      "type": "function",
      "constant": true
    },
    {
      "inputs": [
        {
          "internalType": "uint256",
          "name": "_num",
          "type": "uint256"
        }
      ],
      "name": "set",
      "outputs": [],
      "stateMutability": "nonpayable",
      "type": "function"
    },
    {
      "inputs": [],
      "name": "get",
      "outputs": [
        {
          "internalType": "uint256",
          "name": "",
          "type": "uint256"
        }
      ],
      "stateMutability": "view",
      "type": "function",
      "constant": true
    }
  ],
  "bytecode": "0x608060405234801561001057600080fd5b5061017f806100206000396000f3fe608060405234801561001057600080fd5b50600436106100415760003560e01c80634e70b1dc1461004657806360fe47b1146100645780636d4ce63c14610080575b600080fd5b61004e61009e565b60405161005b91906100d0565b60405180910390f35b61007e6004803603810190610079919061011c565b6100a4565b005b6100886100ae565b60405161009591906100d0565b60405180910390f35b60005481565b8060008190555050565b60008054905090565b6000819050919050565b6100ca816100b7565b82525050565b60006020820190506100e560008301846100c1565b92915050565b600080fd5b6100f9816100b7565b811461010457600080fd5b50565b600081359050610116816100f0565b92915050565b600060208284031215610132576101316100eb565b5b600061014084828501610107565b9150509291505056fea2646970667358221220af11a15ef45c4911aad6e34364811fac93f175d69fb1b4b54df746f238eccb3f64736f6c634300080f0033",
  "immutableReferences": {},
  "source": "// SPDX-License-Identifier: MIT\npragma solidity ^0.8.13;\n\ncontract SimpleStorage {\n    // State variable to store a number\n    uint public num;\n\n    // You need to send a transaction to write to a state variable.\n    function set(uint _num) public {\n        num = _num;\n    }\n\n    // You can read from a state variable without sending a transaction.\n    function get() public view returns (uint) {\n        return num;\n    }\n}\n",
  "sourcePath": "/Users/n_hiroshi/GitHub/solidity_by_example/SimpleStorage-dapp/contracts/SimpleStorage.sol",
  "compiler": {
    "name": "solc",
    "version": "0.8.15+commit.e14f2714.Emscripten.clang"
  },
  "schemaVersion": "3.4.7",
  "updatedAt": "2022-08-04T12:50:02.476Z",
  "networkType": "ethereum",
  "devdoc": {
    "kind": "dev",
    "methods": {},
    "version": 1
  },
  "userdoc": {
    "kind": "user",
    "methods": {},
    "version": 1
  }
}