{
  "contractName": "Primitives",
  "abi": [
    {
      "inputs": [],
      "name": "a",
      "outputs": [
        {
          "internalType": "bytes1",
          "name": "",
          "type": "bytes1"
        }
      ],
      "stateMutability": "view",
      "type": "function",
      "constant": true
    },
    {
      "inputs": [],
      "name": "addr",
      "outputs": [
        {
          "internalType": "address",
          "name": "",
          "type": "address"
        }
      ],
      "stateMutability": "view",
      "type": "function",
      "constant": true
    },
    {
      "inputs": [],
      "name": "b",
      "outputs": [
        {
          "internalType": "bytes1",
          "name": "",
          "type": "bytes1"
        }
      ],
      "stateMutability": "view",
      "type": "function",
      "constant": true
    },
    {
      "inputs": [],
      "name": "boo",
      "outputs": [
        {
          "internalType": "bool",
          "name": "",
          "type": "bool"
        }
      ],
      "stateMutability": "view",
      "type": "function",
      "constant": true
    },
    {
      "inputs": [],
      "name": "defaultAddr",
      "outputs": [
        {
          "internalType": "address",
          "name": "",
          "type": "address"
        }
      ],
      "stateMutability": "view",
      "type": "function",
      "constant": true
    },
    {
      "inputs": [],
      "name": "defaultBoo",
      "outputs": [
        {
          "internalType": "bool",
          "name": "",
          "type": "bool"
        }
      ],
      "stateMutability": "view",
      "type": "function",
      "constant": true
    },
    {
      "inputs": [],
      "name": "defaultInt",
      "outputs": [
        {
          "internalType": "int256",
          "name": "",
          "type": "int256"
        }
      ],
      "stateMutability": "view",
      "type": "function",
      "constant": true
    },
    {
      "inputs": [],
      "name": "defaultUint",
      "outputs": [
        {
          "internalType": "uint256",
          "name": "",
          "type": "uint256"
        }
      ],
      "stateMutability": "view",
      "type": "function",
      "constant": true
    },
    {
      "inputs": [],
      "name": "i",
      "outputs": [
        {
          "internalType": "int256",
          "name": "",
          "type": "int256"
        }
      ],
      "stateMutability": "view",
      "type": "function",
      "constant": true
    },
    {
      "inputs": [],
      "name": "i256",
      "outputs": [
        {
          "internalType": "int256",
          "name": "",
          "type": "int256"
        }
      ],
      "stateMutability": "view",
      "type": "function",
      "constant": true
    },
    {
      "inputs": [],
      "name": "i8",
      "outputs": [
        {
          "internalType": "int8",
          "name": "",
          "type": "int8"
        }
      ],
      "stateMutability": "view",
      "type": "function",
      "constant": true
    },
    {
      "inputs": [],
      "name": "maxInt",
      "outputs": [
        {
          "internalType": "int256",
          "name": "",
          "type": "int256"
        }
      ],
      "stateMutability": "view",
      "type": "function",
      "constant": true
    },
    {
      "inputs": [],
      "name": "minInt",
      "outputs": [
        {
          "internalType": "int256",
          "name": "",
          "type": "int256"
        }
      ],
      "stateMutability": "view",
      "type": "function",
      "constant": true
    },
    {
      "inputs": [],
      "name": "u",
      "outputs": [
        {
          "internalType": "uint256",
          "name": "",
          "type": "uint256"
        }
      ],
      "stateMutability": "view",
      "type": "function",
      "constant": true
    },
    {
      "inputs": [],
      "name": "u256",
      "outputs": [
        {
          "internalType": "uint256",
          "name": "",
          "type": "uint256"
        }
      ],
      "stateMutability": "view",
      "type": "function",
      "constant": true
    },
    {
      "inputs": [],
      "name": "u8",
      "outputs": [
        {
          "internalType": "uint8",
          "name": "",
          "type": "uint8"
        }
      ],
      "stateMutability": "view",
      "type": "function",
      "constant": true
    }
  ],
  "bytecode": "0x608060405260016000806101000a81548160ff0219169083151502179055506001600060016101000a81548160ff021916908360ff1602179055506101c8600155607b6002557fffffffffffffffffffffffffffffffffffffffffffffffffffffffffffffffff600360006101000a81548160ff021916908360000b60ff1602179055506101c86004557fffffffffffffffffffffffffffffffffffffffffffffffffffffffffffffff856005557f80000000000000000000000000000000000000000000000000000000000000006006557f7fffffffffffffffffffffffffffffffffffffffffffffffffffffffffffffff60075573ca35b7d915458ef540ade6068dfe2f44e8fa733c600860006101000a81548173ffffffffffffffffffffffffffffffffffffffff021916908373ffffffffffffffffffffffffffffffffffffffff16021790555060b560f81b600860146101000a81548160ff021916908360f81c0217905550605660f81b600860156101000a81548160ff021916908360f81c021790555034801561019457600080fd5b506105c5806101a46000396000f3fe608060405234801561001057600080fd5b50600436106101005760003560e01c8063767800de11610097578063ab3a58a311610066578063ab3a58a31461026d578063c6a898c51461028b578063e5aa3d58146102a9578063f2427d37146102c757610100565b8063767800de146101f55780637a4c2571146102135780637e4e14cc14610231578063921cda741461024f57610100565b80634b3df200116100d35780634b3df2001461017d5780634c27fd621461019b5780634df7e3d0146101b95780635abe622b146101d757610100565b8063074eef3f146101055780630dbe671f146101235780631570c2cb14610141578063459b1acf1461015f575b600080fd5b61010d6102e5565b60405161011a91906103ec565b60405180910390f35b61012b6102f8565b6040516101389190610442565b60405180910390f35b61014961030b565b6040516101569190610476565b60405180910390f35b610167610311565b6040516101749190610476565b60405180910390f35b610185610317565b60405161019291906103ec565b60405180910390f35b6101a3610328565b6040516101b091906104aa565b60405180910390f35b6101c161032e565b6040516101ce9190610442565b60405180910390f35b6101df610341565b6040516101ec91906104aa565b60405180910390f35b6101fd610347565b60405161020a9190610506565b60405180910390f35b61021b61036d565b60405161022891906104aa565b60405180910390f35b610239610373565b60405161024691906104aa565b60405180910390f35b610257610379565b604051610264919061053d565b60405180910390f35b61027561038c565b6040516102829190610574565b60405180910390f35b61029361039f565b6040516102a09190610476565b60405180910390f35b6102b16103a5565b6040516102be91906104aa565b60405180910390f35b6102cf6103ab565b6040516102dc9190610506565b60405180910390f35b600860169054906101000a900460ff1681565b600860149054906101000a900460f81b81565b60095481565b60015481565b60008054906101000a900460ff1681565b60045481565b600860159054906101000a900460f81b81565b600a5481565b600860009054906101000a900473ffffffffffffffffffffffffffffffffffffffff1681565b60075481565b60065481565b600360009054906101000a900460000b81565b600060019054906101000a900460ff1681565b60025481565b60055481565b600b60009054906101000a900473ffffffffffffffffffffffffffffffffffffffff1681565b60008115159050919050565b6103e6816103d1565b82525050565b600060208201905061040160008301846103dd565b92915050565b60007fff0000000000000000000000000000000000000000000000000000000000000082169050919050565b61043c81610407565b82525050565b60006020820190506104576000830184610433565b92915050565b6000819050919050565b6104708161045d565b82525050565b600060208201905061048b6000830184610467565b92915050565b6000819050919050565b6104a481610491565b82525050565b60006020820190506104bf600083018461049b565b92915050565b600073ffffffffffffffffffffffffffffffffffffffff82169050919050565b60006104f0826104c5565b9050919050565b610500816104e5565b82525050565b600060208201905061051b60008301846104f7565b92915050565b60008160000b9050919050565b61053781610521565b82525050565b6000602082019050610552600083018461052e565b92915050565b600060ff82169050919050565b61056e81610558565b82525050565b60006020820190506105896000830184610565565b9291505056fea26469706673582212206ec5839622fbd92d245980fe2bb22ff9896b57d40afa6266cf9ea684180ae92d64736f6c634300080f0033",
  "immutableReferences": {},
  "source": "// SPDX-License-Identifier: MIT\npragma solidity ^0.8.13;\n\ncontract Primitives {\n    bool public boo = true;\n\n    /*\n    uint stands for unsigned integer, meaning non negative integers\n    different sizes are available\n        uint8   ranges from 0 to 2 ** 8 - 1\n        uint16  ranges from 0 to 2 ** 16 - 1\n        ...\n        uint256 ranges from 0 to 2 ** 256 - 1\n    */\n    uint8 public u8 = 1;\n    uint public u256 = 456;\n    uint public u = 123; // uint is an alias for uint256\n\n    /*\n    Negative numbers are allowed for int types.\n    Like uint, different ranges are available from int8 to int256\n    \n    int256 ranges from -2 ** 255 to 2 ** 255 - 1\n    int128 ranges from -2 ** 127 to 2 ** 127 - 1\n    */\n    int8 public i8 = -1;\n    int public i256 = 456;\n    int public i = -123; // int is same as int256\n\n    // minimum and maximum of int\n    int public minInt = type(int).min;\n    int public maxInt = type(int).max;\n\n    address public addr = 0xCA35b7d915458EF540aDe6068dFe2F44E8fa733c;\n\n    /*\n    In Solidity, the data type byte represent a sequence of bytes. \n    Solidity presents two type of bytes types :\n\n     - fixed-sized byte arrays\n     - dynamically-sized byte arrays.\n     \n     The term bytes in Solidity represents a dynamic array of bytes. \n     Its a shorthand for byte[] .\n    */\n    bytes1 public a = 0xb5; //  [10110101]\n    bytes1 public b = 0x56; //  [01010110]\n\n    // Default values\n    // Unassigned variables have a default value\n    bool public defaultBoo; // false\n    uint public defaultUint; // 0\n    int public defaultInt; // 0\n    address public defaultAddr; // 0x0000000000000000000000000000000000000000\n}\n",
  "sourcePath": "/Users/n_hiroshi/GitHub/solidity_by_example/Primitive-dapp/contracts/Primitives.sol",
  "compiler": {
    "name": "solc",
    "version": "0.8.15+commit.e14f2714.Emscripten.clang"
  },
  "schemaVersion": "3.4.7",
  "updatedAt": "2022-07-24T02:12:28.712Z",
  "networkType": "ethereum",
  "devdoc": {
    "kind": "dev",
    "methods": {},
    "version": 1
  },
  "userdoc": {
    "kind": "user",
    "methods": {},
    "version": 1
  }
}