{
  "contractName": "Constants",
  "abi": [
    {
      "inputs": [],
      "name": "MY_ADDRESS",
      "outputs": [
        {
          "internalType": "address",
          "name": "",
          "type": "address"
        }
      ],
      "stateMutability": "view",
      "type": "function",
      "constant": true
    },
    {
      "inputs": [],
      "name": "MY_UINT",
      "outputs": [
        {
          "internalType": "uint256",
          "name": "",
          "type": "uint256"
        }
      ],
      "stateMutability": "view",
      "type": "function",
      "constant": true
    },
    {
      "inputs": [],
      "name": "myIntPlus",
      "outputs": [
        {
          "internalType": "uint256",
          "name": "",
          "type": "uint256"
        }
      ],
      "stateMutability": "view",
      "type": "function",
      "constant": true
    }
  ],
  "bytecode": "0x608060405234801561001057600080fd5b5061021d806100206000396000f3fe608060405234801561001057600080fd5b50600436106100415760003560e01c80631f6649e3146100465780633a756cec1461006457806349b9bb2414610082575b600080fd5b61004e6100a0565b60405161005b91906100eb565b60405180910390f35b61006c6100a5565b6040516100799190610147565b60405180910390f35b61008a6100bd565b60405161009791906100eb565b60405180910390f35b607b81565b73777788889999aaaabbbbccccddddeeeeffffcccc81565b60006001607b6100cd9190610191565b905090565b6000819050919050565b6100e5816100d2565b82525050565b600060208201905061010060008301846100dc565b92915050565b600073ffffffffffffffffffffffffffffffffffffffff82169050919050565b600061013182610106565b9050919050565b61014181610126565b82525050565b600060208201905061015c6000830184610138565b92915050565b7f4e487b7100000000000000000000000000000000000000000000000000000000600052601160045260246000fd5b600061019c826100d2565b91506101a7836100d2565b9250827fffffffffffffffffffffffffffffffffffffffffffffffffffffffffffffffff038211156101dc576101db610162565b5b82820190509291505056fea26469706673582212201d154176bf5da17c01921d9659f8aa12f8d6390fe3f96d6b3aff20f6d4f745a664736f6c634300080f0033",
  "immutableReferences": {},
  "source": "// SPDX-License-Identifier: MIT\npragma solidity ^0.8.13;\n\ncontract Constants {\n    // coding convention to uppercase constant variables\n    address public constant MY_ADDRESS = 0x777788889999AaAAbBbbCcccddDdeeeEfFFfCcCc;\n    uint public constant MY_UINT = 123;\n\n    function myIntPlus() external view returns (uint) {\n        return MY_UINT + 1;\n    }\n}\n",
  "sourcePath": "/Users/n_hiroshi/GitHub/solidity_by_example/Constants-dapp/contracts/Constants.sol",
  "compiler": {
    "name": "solc",
    "version": "0.8.15+commit.e14f2714.Emscripten.clang"
  },
  "schemaVersion": "3.4.7",
  "updatedAt": "2022-08-02T12:36:26.250Z",
  "networkType": "ethereum",
  "devdoc": {
    "kind": "dev",
    "methods": {},
    "version": 1
  },
  "userdoc": {
    "kind": "user",
    "methods": {},
    "version": 1
  }
}