{
  "contractName": "EtherUnits",
  "abi": [
    {
      "inputs": [],
      "name": "isOneEther",
      "outputs": [
        {
          "internalType": "bool",
          "name": "",
          "type": "bool"
        }
      ],
      "stateMutability": "view",
      "type": "function",
      "constant": true
    },
    {
      "inputs": [],
      "name": "isOneWei",
      "outputs": [
        {
          "internalType": "bool",
          "name": "",
          "type": "bool"
        }
      ],
      "stateMutability": "view",
      "type": "function",
      "constant": true
    },
    {
      "inputs": [],
      "name": "oneEther",
      "outputs": [
        {
          "internalType": "uint256",
          "name": "",
          "type": "uint256"
        }
      ],
      "stateMutability": "view",
      "type": "function",
      "constant": true
    },
    {
      "inputs": [],
      "name": "oneWei",
      "outputs": [
        {
          "internalType": "uint256",
          "name": "",
          "type": "uint256"
        }
      ],
      "stateMutability": "view",
      "type": "function",
      "constant": true
    }
  ],
  "bytecode": "0x6080604052600160005560018014600160006101000a81548160ff021916908315150217905550670de0b6b3a7640000600255670de0b6b3a76400008014600360006101000a81548160ff02191690831515021790555034801561006257600080fd5b5061019b806100726000396000f3fe608060405234801561001057600080fd5b506004361061004c5760003560e01c806328dc556f146100515780634fb2e0be1461006f578063cf0f5d291461008d578063d297a89f146100ab575b600080fd5b6100596100c9565b6040516100669190610116565b60405180910390f35b6100776100dc565b604051610084919061014a565b60405180910390f35b6100956100e2565b6040516100a29190610116565b60405180910390f35b6100b36100f5565b6040516100c0919061014a565b60405180910390f35b600160009054906101000a900460ff1681565b60005481565b600360009054906101000a900460ff1681565b60025481565b60008115159050919050565b610110816100fb565b82525050565b600060208201905061012b6000830184610107565b92915050565b6000819050919050565b61014481610131565b82525050565b600060208201905061015f600083018461013b565b9291505056fea264697066735822122019315aa5d661c942fe964d0f789fd5a92358a72fba91b12f34ff70c65a64159764736f6c634300080f0033",
  "immutableReferences": {},
  "source": "// SPDX-License-Identifier: MIT\npragma solidity ^0.8.13;\n\ncontract EtherUnits {\n    uint public oneWei = 1 wei;\n    // 1 wei is equal to 1\n    bool public isOneWei = 1 wei == 1;\n\n    uint public oneEther = 1 ether;\n    // 1 ether is equal to 10^18 wei\n    bool public isOneEther = 1 ether == 1e18;\n}\n",
  "sourcePath": "/Users/n_hiroshi/GitHub/solidity_by_example/EtherUnits-dapp/contracts/EtherUnits.sol",
  "compiler": {
    "name": "solc",
    "version": "0.8.15+commit.e14f2714.Emscripten.clang"
  },
  "schemaVersion": "3.4.7",
  "updatedAt": "2022-07-26T11:41:24.009Z",
  "networkType": "ethereum",
  "devdoc": {
    "kind": "dev",
    "methods": {},
    "version": 1
  },
  "userdoc": {
    "kind": "user",
    "methods": {},
    "version": 1
  }
}